:100000000C9433000C9408070C9431070C945A0795
:100010000C9450000C9450000C94CB080C9479086C
:100020000C94A2080C9448080C94DB070C94B207BB
:100030000C948B070C945D090C9450000C94860969
:100040000C9450000C9450000C9450000C945000F0
:100050000C9450000E08100818081A0825082708E4
:100060002F083408360811241FBECFE5D8E0DEBFC4
:10007000CDBF11E0A0E6B0E0EEE6F3E102C00590EE
:100080000D92A83EB107D9F722E0A8EEB1E001C079
:100090001D92A830B207E1F70E94CB020C94B5097B
:1000A0000C9400000E94B60260E080E00E94C00252
:1000B00080E690E00E94A3022FEF82E597E02150B6
:1000C00080409040E1F700C000000C9400000895CB
:1000D0000E94B60260E080E00E94C00280E790E0EB
:1000E0000C94A30260E080E00E94C0028EE790E0E2
:1000F0000C94A3020E94B60260E080E00E94C0025D
:1001000089E890E00C94A3020E94B60260E080E0CF
:100110000E94C0028EE990E00C94A3020E94B602F5
:1001200060E080E00E94C0028DEA90E00C94A3029F
:100130000E9487018435E1F308951F93CF93DF93E5
:10014000C82FD62F142F0E94C002812F0E94A10217
:100150002FEF82E597E0215080409040E1F700C00A
:1001600000006D2F8C2F0E94C0028AE2DF91CF9198
:100170001F910C94A1020E94B60260E080E00E94F0
:10018000C0028CEB90E00E94A30260E081E00E943C
:10019000C00288EC90E00C94A3020E94B60260E0DA
:1001A00080E00E94C00288ED90E00C94A3020E94BF
:1001B000B60260E080E00E94C00288EE90E00C94FD
:1001C000A3020E94B60260E080E00E94C00288EFB5
:1001D00090E00E94A30260E081E00E94C00288E0FB
:1001E00091E00C94A302CF93DF93D82FC62F88E120
:1001F00091E00E94A3028D2F0E94A10283E991E069
:100200000E94A302C11103C08DE191E002C081E20E
:1002100091E00E94A30260E081E00E94C00284E2BB
:1002200091E0DF91CF910C94A3020E94B60260E0AE
:1002300080E00E94C00285E391E00E94A3022FEFBC
:1002400082E597E0215080409040E1F700C0000037
:1002500008950E94B60260E080E00E94C00288EF2C
:1002600090E00E94A30260E081E00E94C00283E46B
:1002700091E00C94A3020E94B60260E080E00E942C
:10028000C00282E591E00E94A30260E081E00E944A
:10029000C0028FE591E00C94A3020E94B60260E0D8
:1002A00080E00E94C00280E791E00E94A30260E02B
:1002B00081E00E94C0028BE791E00C94A302CF93EF
:1002C000C82F8BE891E00E94A302C11103C08DE109
:1002D00091E002C081E291E00E94A30260E081E02F
:1002E0000E94C00284E291E0CF910C94A30261E0ED
:1002F00080E00E94440661E081E00E94440661E0E3
:1003000082E00E94440661E083E00C944406DF92A0
:10031000EF92FF920F931F93CF93DF9397E9E92E0C
:1003200091E0F92EC0E0D4E560E08C2F0E944406F5
:1003300000E010E080E1D82ED00E8D2D0E94D50671
:10034000811109C0F701E00FF11FD0818D2D0E94AE
:10035000D5068823D9F30F5F1F4F0430110551F7DD
:1003600061E08C2F0E944406CF5F84E0E80EF11C10
:10037000C430D1F68D2FDF91CF911F910F91FF9057
:10038000EF90DF900895CF93C82F60E086E10E9440
:1003900044066C2F661F6627661F8FE10E94440685
:1003A000C6FB662760F98EE10E944406C5FB6627FE
:1003B00060F98DE10E944406C4FB662760F98CE178
:1003C0000E94440661E087E10E9444068FEC97E0BA
:1003D0000197F1F700C0000060E087E10E94440649
:1003E0008FEC97E00197F1F700C00000C3FB662790
:1003F00060F98FE10E944406C2FB662760F98EE136
:100400000E944406C1FB662760F98DE10E94440604
:100410006C2F61708CE10E94440661E087E10E94CC
:1004200044068FEC97E00197F1F700C0000060E010
:1004300087E10E9444068FEC97E00197F1F700C036
:100440000000CF910895CF93C82F61E086E10E940C
:1004500044066C2F661F6627661F8FE10E944406C4
:10046000C6FB662760F98EE10E944406C5FB66273D
:1004700060F98DE10E944406C4FB662760F98CE1B7
:100480000E94440661E087E10E9444068FEC97E0F9
:100490000197F1F700C0000060E087E10E94440688
:1004A0008FEC97E00197F1F700C00000C3FB6627CF
:1004B00060F98FE10E944406C2FB662760F98EE175
:1004C0000E944406C1FB662760F98DE10E94440644
:1004D0006C2F61708CE10E94440661E087E10E940C
:1004E00044068FEC97E00197F1F700C0000060E050
:1004F00087E10E9444068FEC97E00197F1F700C076
:100500000000CF9108952FE788E391E021508040CB
:100510009040E1F700C0000082E00E94C30188E241
:100520000E94C3018CE00E94C30181E00E94C301CC
:100530008FEC97E00197F1F700C0000086E00C9483
:10054000C3010C9423020F931F93CF938C01C0E03F
:10055000F801EC0FF11D8081882321F00E94230215
:10056000CF5FF6CFCF911F910F91089581E00E9448
:10057000C3018FEC97E00197F1F700C000000895E8
:10058000811102C080E803C0813021F480EC860F25
:100590000C94C30108950E9431060E9483020E94B8
:1005A00077010E948307789480E091E00E94010720
:1005B000D82F81E091E00E940107F82E88E990E0B1
:1005C0000E940107C82F0E9472002FEF84E39CE075
:1005D000215080409040E1F700C00000C13091F40C
:1005E0000E9468002FEF8DE399E4215080409040F5
:1005F000E1F700C000006FEF88E990E00E94F90683
:10060000C2E001C0C0E0DF3F81F50E947A002FEF19
:1006100084E39CE0215080409040E1F700C000005E
:100620000E94840002E011E00E949800D82F682FF9
:10063000C8010E94F9066EEF600F4D2F81E00E9405
:100640009D000F5F1F4F063021E0120769F78FEF03
:1006500092E527E0815090402040E1F700C0000083
:1006600061E080E091E00E94F9068FEFF81230C05F
:100670000E947A009FEF24E38CE09150204080405C
:10068000E1F700C000000E948E0006E011E00E9429
:100690009800D82F682FC8010E94F9066AEF600FF2
:1006A0004D2F81E00E949D000F5F1F4F0A3091E0A7
:1006B000190769F72FEF82E597E0215080409040BD
:1006C000E1F700C0000061E081E091E00E94F906DE
:1006D0000E94BB000E949800813309F054C00E9420
:1006E000CD0002E011E0D1E09EEFE92EE00E0E9485
:1006F0009800F82EC8010E940107F812D0E04F2D93
:100700006E2D81E00E949D000F5F1F4F063021E09B
:10071000120751F78FEF92E527E08150904020407B
:10072000E1F700C000000E94B60260E080E00E9495
:10073000C002D13079F487EA91E00E94A3028FEFE2
:1007400092E527E0815090402040E1F700C0000092
:1007500001E073C084EB91E00E94A3028FEF92E569
:1007600027E0815090402040E1F700C00000CF5FBB
:10077000C33009F0B4CF61E088E990E00E94F90647
:100780000C940000ACCF823309F054C00E94D70013
:1007900006E011E0D1E08AEFE82EE00E0E9498001A
:1007A000F82EC8010E940107F812D0E04F2D6E2DDF
:1007B00081E00E949D000F5F1F4F0A3081E0180703
:1007C00051F79FEF22E587E0915020408040E1F70C
:1007D00000C000000E94B60260E080E00E94C002FB
:1007E000D13079F487EA91E00E94A3029FEF22E5DD
:1007F00087E0915020408040E1F700C0000000E019
:100800001CC084EB91E00E94A3029FEF22E587E0E9
:10081000915020408040E1F700C00000CF5FC3301E
:1008200009F0B4CF61E088E990E00E94F9060C94E9
:100830000000ACCF0E9415014BCF62E570E08EE165
:1008400090E00E94F40801114FC00E94E1000E9454
:100850009800C82F0E94B60260E080E00E94C002AB
:100860008FEC8C0F8430C8F48C2F0E9486079FEF8A
:1008700021EE84E0915020408040E1F700C000006C
:100880008C2F0E948607682F8C2F0E94F3000E94F5
:100890009800813329F481E306C00E941501D5CF69
:1008A000823329F481E18C0F0E948607CECF8333F7
:1008B00061F20E941501C7CFC43309F0C5C00E9480
:1008C0003B010E949800C82F0E94B60260E080E0C1
:1008D0000E94C0028FEC8C0F823078F1C33309F490
:1008E0006CC0C43309F04EC00E9429010E949800D8
:1008F000C82F0E94B60260E080E00E94C0028FEC28
:100900008C0F8330C8F68C2F0E9486079FEF21EE54
:1009100084E0915020408040E1F700C000008C2F1F
:100920000E948607682F8C2F0E94F3000E94980077
:10093000813309F08CC081E38DC013E01C0F812F3F
:100940000E9486079FEF21EE84E091502040804076
:10095000E1F700C00000812F0E948607682F812FD9
:100960000E94F3000E949800813311F484E303C0D5
:10097000823329F484E18C0F0E948607A0CF833351
:1009800009F49DCF0E9415019ACF86E30E94860745
:100990009FEF20E782E0915020408040E1F700C0C7
:1009A000000086E30E9486070E945F010E94980073
:1009B000813389F487E60E9486070E944D010E94D8
:1009C0009800C82F0E94B60260E080E00E94C0023A
:1009D000C23351F4DACF823311F487E4ECCF83339E
:1009E00061F30E941501E9CFC13359F58FEB91E016
:1009F0000E94A3020E949800182F60E081E00E94EC
:100A0000C002812F0E94A1020E949800C82F61E0BD
:100A100081E00E94C0028C2F0E94A102105380ED41
:100A20008C0F9AE0199F800D11240E9486072FEFEA
:100A300082E597E0215080409040E1F700C000003F
:100A4000BCCFC33371F63BCF0E9415014DCF82332B
:100A500029F481E18C0F0E948607F5CE833309F0DB
:100A600028CFF1CE8830B0F098EF980F983008F486
:100A70004AC090EF980F983008F47FC098EE980F16
:100A8000983008F4B4C06130C1F038F0623009F039
:100A9000E7C025C0613089F098F54AB321E030E025
:100AA000B90102C0660F771F8A95E2F7CB01942F38
:100AB000982B9ABB9BB380950FC04AB321E030E0DE
:100AC000B90102C0660F771F8A95E2F7CB018095C6
:100AD000942F98239ABB9BB389238BBB08954AB369
:100AE00021E030E0B90102C0660F771F8A95E2F776
:100AF000CB01962F909594239ABB9BB3892BEDCF76
:100B0000623069F30895613091F447B321E030E039
:100B1000B90102C0660F771F9A95E2F7CB01809565
:100B2000942F982397BB98B3892388BB089561308D
:100B300080F447B321E030E0B90102C0660F771FAF
:100B40009A95E2F7CB01942F982B97BB98B3809599
:100B5000EBCF623089F447B321E030E0B90102C045
:100B6000660F771F9A95E2F7CB01962F9095942305
:100B700097BB98B3892BD9CF0895613029F544B339
:100B800021E030E0B90102C0660F771F9A95E2F7C5
:100B9000CB018095942F982394BB95B3892312C0E1
:100BA000623021F544B321E030E0B90102C0660FA4
:100BB000771F9A95E2F7CB01962F9095942394BBDB
:100BC00095B3892B85BB0895613050F744B321E07C
:100BD00030E0B90102C0660F771F9A95E2F7CB01AA
:100BE000942F982B94BB95B38095D8CF08956130FE
:100BF00091F441B321E030E0B90102C0660F771FE4
:100C00009A95E2F7CB018095942F982391BB92B3EC
:100C1000892382BB0895613080F441B321E030E044
:100C2000B90102C0660F771F9A95E2F7CB01942FA6
:100C3000982B91BB92B38095EBCF623089F441B38E
:100C400021E030E0B90102C0660F771F9A95E2F704
:100C5000CB01962F9095942391BB92B3892BD9CF3A
:100C600008950F931F93CF9308EC11E0C0E0F801B3
:100C700061918F018C2F0E943205CF5FC032B9F78E
:100C8000CF911F910F9108958830F8F098EF980F49
:100C9000983070F190EF980F983008F448C098EEB3
:100CA000980F983008F462C0662389F0613009F02B
:100CB0007BC04BB321E030E0B90102C0660F771F63
:100CC0008A95E2F7CB01842B0EC061110EC04BB3A5
:100CD00021E030E0B90102C0660F771F8A95E2F784
:100CE000CB01809584238BBB0895613011F3089567
:100CF00061110EC048B321E030E0B90102C0660FB7
:100D0000771F9A95E2F7CB018095842388BB0895DD
:100D1000613061F448B321E030E0B90102C0660FF0
:100D2000771F9A95E2F7CB01842BF0CF08956111DC
:100D30000EC045B321E030E0B90102C0660F771F55
:100D40009A95E2F7CB018095842385BB08956130A5
:100D500061F445B321E030E0B90102C0660F771FAE
:100D60009A95E2F7CB01842BF0CF089561110EC064
:100D700042B321E030E0B90102C0660F771F9A95B7
:100D8000E2F7CB018095842382BB0895613061F442
:100D900042B321E030E0B90102C0660F771F9A9597
:100DA000E2F7CB01842BF0CF0895482F883060F014
:100DB00088EF840F883060F080EF840F883058F01F
:100DC00088EE840F883050F099B3892F90E00AC0E4
:100DD000482F26B305C0482F23B302C0482F20B3A5
:100DE00030E0C90102C0959587954A95E2F7817078
:100DF0000895E199FECF9FBB8EBB6DBBE29AE19A4D
:100E00000895E199FECF9FBB8EBBE09A8DB3089504
:100E10001F920F920FB60F9211242F933F934F936F
:100E20005F936F937F938F939F93AF93BF93EF9352
:100E3000FF93E091EC01F091ED01309709F00995F5
:100E4000FF91EF91BF91AF919F918F917F916F91A2
:100E50005F914F913F912F910F900FBE0F901F9078
:100E600018951F920F920FB60F9211242F933F9354
:100E70004F935F936F937F938F939F93AF93BF93A2
:100E8000EF93FF93E091EA01F091EB01309709F0C5
:100E90000995FF91EF91BF91AF919F918F917F91B4
:100EA0006F915F914F913F912F910F900FBE0F90D7
:100EB0001F9018951F920F920FB60F9211242F9327
:100EC0003F934F935F936F937F938F939F93AF93D2
:100ED000BF93EF93FF93E091E801F091E901309720
:100EE00009F00995FF91EF91BF91AF919F918F917B
:100EF0007F916F915F914F913F912F910F900FBE16
:100F00000F901F9018956C9A6E9A08958FB9779BE1
:100F1000FECF8FB108951F920F920FB60F9211243A
:100F20002F933F934F935F936F937F938F939F93F1
:100F3000AF93BF93EF93FF93E091EE01F091EF0138
:100F40000995FF91EF91BF91AF919F918F917F9103
:100F50006F915F914F913F912F910F900FBE0F9026
:100F60001F9018951F920F920FB60F9211242F9376
:100F70003F934F935F936F937F938F939F93AF9321
:100F8000BF93EF93FF93E0910002F091010230973D
:100F900009F00995FF91EF91BF91AF919F918F91CA
:100FA0007F916F915F914F913F912F910F900FBE65
:100FB0000F901F9018951F920F920FB60F92112449
:100FC0002F933F934F935F936F937F938F939F9351
:100FD000AF93BF93EF93FF93E091FE01F091FF0178
:100FE000309709F00995FF91EF91BF91AF919F91D3
:100FF0008F917F916F915F914F913F912F910F90C2
:101000000FBE0F901F90189590E089309105C8F59C
:10101000FC01E65DFF4F8FB50C94AF098E7F01C0D8
:1010200081608FBD8FB58D7F8FBD8EB5877F09C0E5
:101030008E7F01C081608FBD8FB58D7F8FBD8EB5D6
:1010400088608EBD8EB58F7E1BC08E7F01C0816093
:101050008FBD8FB582608FBD8EB5877F0EC08E7FAE
:101060008FBD8FB58D7F06C08E7F01C081608FBD23
:101070008FB582608FBD8EB588608EBD8EB5806164
:101080008EBD8EB5887F8EBD8EB5682B6EBD0895E2
:101090001F920F920FB60F9211242F933F934F93ED
:1010A0005F936F937F938F939F93AF93BF93EF93D0
:1010B000FF93E091FA01F091FB01309709F0099557
:1010C000FF91EF91BF91AF919F918F917F916F9120
:1010D0005F914F913F912F910F900FBE0F901F90F6
:1010E000189589B7806189BF089589B78F7E89BFB8
:1010F00008951F920F920FB60F9211242F933F93D2
:101100004F935F936F937F938F939F93AF93BF930F
:10111000EF93FF93E091F801F091F901309709F016
:101120000995FF91EF91BF91AF919F918F917F9121
:101130006F915F914F913F912F910F900FBE0F9044
:101140001F9018951F920F920FB60F9211242F9394
:101150003F934F935F936F937F938F939F93AF933F
:10116000BF93EF93FF93E091F401F091F501309775
:1011700009F00995FF91EF91BF91AF919F918F91E8
:101180007F916F915F914F913F912F910F900FBE83
:101190000F901F9018951F920F920FB60F92112467
:1011A0002F933F934F935F936F937F938F939F936F
:1011B000AF93BF93EF93FF93E091FC01F091FD019A
:1011C000309709F00995FF91EF91BF91AF919F91F1
:1011D0008F917F916F915F914F913F912F910F90E0
:1011E0000FBE0F901F901895CF93DF93EB011092D5
:1011F000F3011092F2011092F1011092F00190931C
:101200000702809306021DBC1CBC62E082E00E94C3
:10121000040887EE93E09BBD8ABDD093F701C0938D
:10122000F60185E299E09093F9018093F801DF914E
:10123000CF910C9471089EB5987F9EBD9EB5892B69
:101240008EBD089580E00C941B098091F20190916D
:10125000F3010196883E23E0920729F09093F30171
:101260008093F2010DC01092F3011092F20180916F
:10127000F0019091F10101969093F1018093F001BA
:101280002091F0013091F1018091060290910702C6
:101290002817390789F4E091F601F091F7010995D3
:1012A0001092F3011092F2011092F1011092F001EC
:1012B0000E9422090C94750808951F920F920FB690
:1012C0000F9211242F933F934F935F936F937F93CC
:1012D0008F939F93AF93BF93EF93FF93E09104029B
:1012E000F0910502309709F00995FF91EF91BF91B8
:1012F000AF919F918F917F916F915F914F913F91AE
:101300002F910F900FBE0F901F9018951F920F9264
:101310000FB60F9211242F933F934F935F936F93C8
:101320007F938F939F93AF93BF93EF93FF93E0913E
:101330000202F0910302309709F00995FF91EF91B5
:10134000BF91AF919F918F917F916F915F914F91DD
:101350003F912F910F900FBE0F901F901895EE0F99
:0E136000FF1F0590F491E02D0994F894FFCF43
:10136E0053657373696F6E2054696D656F75740084
:10137E00626C6F636B696E67206D6F646500536D91
:10138E0061727420486F6D65004C6F6767696E6798
:10139E0020666F72203173742074696D6500536519
:1013AE00742041646D696E205061737300536574CF
:1013BE0020477565737420506173730043686F6FB7
:1013CE007365206D6F646500313A41646D696E20FE
:1013DE00323A477565737400547970652041646DB7
:1013EE00696E20506173730054797065204775657E
:1013FE007374205061737300313A524F4F4D312048
:10140E00323A524F4F4D3200333A524F4F4D3320F6
:10141E00343A524F4F4D3400524F4F4D004F4646C7
:10142E00004F4E00313A4F4E20323A4F464620334F
:10143E003A52455400696E76616C696420696E702B
:10144E00757400333A524F4F4D3320343A4D4F524C
:10145E004500313A524F4F4D3420323A54560033F4
:10146E003A41495220434F4E4420343A524554009B
:10147E00313A5365742054656D7000323A436F6E85
:10148E0074726F6C20333A524554004149522043D6
:10149E004F4E4420533A003738392F3435362A31DF
:1014AE0032332D63303D2B636F727265637420701F
:1014BE006173730077726F6E672070617373005380
:1014CE0045542054454D500000000000000000001F
:1014DE0000000000000001000202020200000000F5
:0814EE000100000000000000F5
:00000001FF
