S00F00006469706C6F6D612E737265632F
S11300000C942A000C9408160C943F160C94761643
S11300100C9447000C9447000C9413180C94B805E6
S11300200C94DC170C94A5170C946E170C943717CA
S11300300C9406170C944A180C9447000C948118DD
S11300400C9447000C9447000C9447000C94470010
S11300500C94470011241FBECFE5D8E0DEBFCDBF0E
S113006010E0A0E6B0E0ECE8F4E302C005900D92E5
S1130070AE38B107D9F725E0AEE8B0E001C01D9273
S1130080A036B207E1F70E9412110C94441A0C94A2
S11300900000CF93DF931F92CDB7DEB719820DC056
S11300A08981882F90E08F599F4FFC01808160E007
S11300B00E94F41489818F5F89838981863080F35B
S11300C000000F90DF91CF910895CF93DF931F929B
S11300D0CDB7DEB78EE290E0FC01808189830E9477
S11300E0C7168093600080916000813378F080911E
S11300F06000873358F480916000882F90E0C197A6
S113010082579F4FFC0180810E94D21600000F90FD
S1130110DF91CF910895CF93DF9300D0CDB7DEB7B1
S11301209A838983809160008236F0F08091600028
S11301308736D0F480916000825680935F05809169
S11301405F05882F90E08F599F4FFC01808161E00B
S11301500E94F41480915F05882F90E082579F4F8E
S113016021E0FC01208334C0809160008234E8F0F7
S1130170809160008734C8F4809160008254809339
S11301805F0580915F05882F90E08F599F4FFC0198
S1130190808160E00E94F41480915F05882F90E0D4
S11301A082579F4FFC01108213C0809160008736F4
S11301B021F481E0809394000BC080916000873427
S11301C019F41092940004C08091600080935E053D
S11301D088EE93E00E94D906A5CFCF93DF9300D099
S11301E0CDB7DEB79A8389830E94011190935D0590
S11301F080935C0580915C0590915D059C01ADEC5C
S1130200BCEC0E94141A96958795969587959695B9
S1130210879590935D0580935C0560E080E00E9483
S1130220E51080915C0590915D05CC01A0E0B0E003
S1130230BC01CD010E94451084EF91E00E94D906D3
S1130240D3CFCF93DF9300D0CDB7DEB79A83898322
S113025080919400882331F48091660060E00E94CC
S1130260F41428C080915E05282F30E080915C054D
S113027090915D0501978217930748F0809166007D
S113028061E00E94F41481E08093930013C0809194
S11302905E05282F30E080915C0590915D05019604
S11302A02817390738F08091660060E00E94F41442
S11302B01092930088EE93E00E94D906C9CFCF93A1
S11302C0DF9300D000D0CDB7DEB79C838B831A8236
S11302D019820E9446072091E1043091E2048B8147
S11302E09C81820F931F8C34944018F52091E10473
S11302F03091E2048B819C81280F391F8091E104A5
S11303009091E20482179307A0F48091E104909104
S1130310E2048B569F4F9A8389832091E1043091A4
S1130320E2048B819C81820F931F9093E20480935B
S1130330E1040E94530789819A810F900F900F90D6
S11303400F90DF91CF910895CF93DF9300D0CDB775
S1130350DEB79A83898300000F900F90DF91CF91CD
S11303600895CF93DF9300D0CDB7DEB79A83898306
S113037089819A819C012D5F3F4F89819A81FC017B
S11303803283218389819A812FEF3FEFFC013483EB
S1130390238389819A819C012D5F3F4F89819A81B2
S11303A0FC013683258389819A819C012D5F3F4F0F
S11303B089819A81FC013087278389819A81FC0194
S11303C0108200000F900F90DF91CF910895CF938A
S11303D0DF9300D0CDB7DEB79A83898389819A8170
S11303E0FC011186108600000F900F90DF91CF91D1
S11303F00895CF93DF9300D000D000D0CDB7DEB7FF
S11304009C838B837E836D838B819C81FC018181A2
S113041092819A83898389819A81FC012281338123
S11304208D819E81FC01338322838B819C81FC011D
S1130430218132818D819E81FC01358324838981D0
S11304409A81FC01828193812D813E81FC01358357
S1130450248389819A812D813E81FC013383228307
S11304608B819C812D813E81FC01328321838D818E
S11304709E812B813C81FC01318720878B819C816B
S1130480FC01808121E0280F8B819C81FC01208369
S1130490000026960FB6F894DEBF0FBECDBFDF91E5
S11304A0CF910895CF93DF93CDB7DEB728970FB6DA
S11304B0F894DEBF0FBECDBF9E838D8378876F8394
S11304C08F819885FC01808191819C838B838B81B2
S11304D09C81019641F48D819E81FC0187819085E8
S11304E09A8389831AC08D819E8103969A83898316
S11304F007C089819A81FC01828193819A838983CF
S113050089819A81FC0182819381FC01208131815E
S11305108B819C818217930760F789819A81FC0102
S1130520228133818F819885FC01338322838F81DB
S11305309885FC01828193812F813885FC01358364
S113054024838F81988529813A81FC013583248312
S113055089819A812F813885FC01338322838F819D
S113056098852D813E81FC01318720878D819E8174
S1130570FC01808121E0280F8D819E81FC01208374
S1130580000028960FB6F894DEBF0FBECDBFDF91F2
S1130590CF910895CF93DF9300D000D0CDB7DEB7CD
S11305A09C838B838B819C81FC01828193812B8131
S11305B03C81F90124813581FC01358324838B81BD
S11305C09C81FC01848195812B813C81F9012281EC
S11305D03381FC01338322838B819C81FC018085E0
S11305E091859A83898389819A81FC012181328151
S11305F08B819C812817390751F48B819C81FC01E4
S11306002481358189819A81FC01328321838B8104
S11306109C81FC011186108689819A81FC0180816C
S11306202FEF280F89819A81FC01208300000F900D
S11306300F900F900F90DF91CF910895CF93DF9398
S1130640CDB7DEB728970FB6F894DEBF0FBECDBF87
S11306509C838B837E836D8358874F838B819C819E
S113066021E1FC0120838B819C8101979C838B83F6
S11306708B819C8122E2FC0120838B819C810197E8
S11306809C838B838B819C8123E3FC0120838B815E
S11306909C8101979C838B838D819E819A8389831E
S11306A029818B819C81FC0120838B819C81019712
S11306B09C838B8389819A81892F99279A83898343
S11306C029818B819C81FC0120838B819C810197F2
S11306D09C838B838B819C81FC0110828B819C8108
S11306E001979C838B838B819C8120E8FC01208370
S11306F08B819C8101979C838B838B819C81FC01E2
S113070010828B819C8101979C838B838B819C813C
S113071022E0FC0120838B819C8101979C838B8345
S11307208B819C8123E0FC0120838B819C81019738
S11307309C838B838B819C8124E0FC0120838B81AF
S11307409C8101979C838B838B819C8125E0FC0198
S113075020838B819C8101979C838B838B819C81DB
S113076026E0FC0120838B819C8101979C838B83F1
S11307708B819C8127E0FC0120838B819C810197E4
S11307809C838B838B819C8128E0FC0120838B815B
S11307909C8101979C838B838B819C8129E0FC0144
S11307A020838B819C8101979C838B838B819C818B
S11307B020E1FC0120838B819C8101979C838B83A6
S11307C08B819C8121E1FC0120838B819C81019799
S11307D09C838B838B819C8122E1FC0120838B8110
S11307E09C8101979C838B838B819C8123E1FC01F9
S11307F020838B819C8101979C838B838B819C813B
S113080024E1FC0120838B819C8101979C838B8351
S11308108B819C8125E1FC0120838B819C81019744
S11308209C838B838B819C8126E1FC0120838B81BB
S11308309C8101979C838B838B819C8127E1FC01A4
S113084020838B819C8101979C838B838B819C81EA
S113085028E1FC0120838B819C8101979C838B83FD
S11308608B819C8129E1FC0120838B819C810197F0
S11308709C838B838B819C8120E2FC0120838B8170
S11308809C8101979C838B838B819C8121E2FC0159
S113089020838B819C8101979C838B838B819C819A
S11308A022E2FC0120838B819C8101979C838B83B2
S11308B08B819C8123E2FC0120838B819C810197A5
S11308C09C838B838F8198859A83898329818B81EB
S11308D09C81FC0120838B819C8101979C838B8369
S11308E089819A81892F99279A83898329818B8188
S11308F09C81FC0120838B819C8101979C838B8349
S11309008B819C8126E2FC0120838B819C81019751
S11309109C838B838B819C8127E2FC0120838B81C8
S11309209C8101979C838B838B819C8128E2FC01B1
S113093020838B819C8101979C838B838B819C81F9
S113094029E2FC0120838B819C8101979C838B830A
S11309508B819C8120E3FC0120838B819C81019706
S11309609C838B838B819C8121E3FC0120838B817D
S11309709C8101979C838B838B819C8128960FB6E5
S1130980F894DEBF0FBECDBFDF91CF910895CF9312
S1130990DF93CDB7DEB70E945605A091E304B09172
S11309A0E404CD91CDBFDD91DEBFFF91EF91DF91E6
S11309B0CF91BF91AF919F918F917F916F915F91F3
S11309C04F913F912F911F910F91FF90EF90DF90E6
S11309D0CF90BF90AF909F908F907F906F905F90DB
S11309E04F903F902F901F900F900FBE0F9008953F
S11309F081E0DF91CF9108950F920FB6F8940F9292
S1130A001F9211242F923F924F925F926F927F9286
S1130A108F929F92AF92BF92CF92DF92EF92FF920A
S1130A200F931F932F933F934F935F936F937F93F2
S1130A308F939F93AF93BF93CF93DF93EF93FF93E2
S1130A40A091E304B091E4040DB60D920EB60D929C
S1130A500E94B308A091E304B091E404CD91CDBF0A
S1130A60DD91DEBFFF91EF91DF91CF91BF91AF9107
S1130A709F918F917F916F915F914F913F912F91B2
S1130A801F910F91FF90EF90DF90CF90BF90AF90A8
S1130A909F908F907F906F905F904F903F902F909A
S1130AA01F900F900FBE0F9008950000CF93DF9317
S1130AB000D000D000D0CDB7DEB780E49FE1A0E045
S1130AC0B0E089839A83AB83BC8389819A81AB81AB
S1130AD0BC81689415F8B695A79597958795169453
S1130AE0D1F789839A83AB83BC8389819A81AB8153
S1130AF0BC810197A109B10989839A83AB83BC8323
S1130B0089818D8389819A81AB81BC81892F9A2FB8
S1130B10AB2FBB2789839A83AB83BC8389818E8364
S1130B208BE490E02E81FC0120838AE490E02D8107
S1130B30FC0120838BE08D838EE490E02D81FC0109
S1130B40208389E590E0FC0180818D838D81806123
S1130B508D8389E590E02D81FC0120830000269699
S1130B600FB6F894DEBF0FBECDBFDF91CF910895CD
S1130B701F920F9200905F000F9211242F933F93C6
S1130B804F935F936F937F938F939F93AF93BF9391
S1130B90EF93FF93CF93DF93CDB7DEB70E94D407D3
S1130BA00000DF91CF91FF91EF91BF91AF919F91A1
S1130BB08F917F916F915F914F913F912F910F9002
S1130BC000925F000F901F901895AF92BF92CF9242
S1130BD0DF92EF92FF920F931F93CF93DF93CDB7E2
S1130BE0DEB764970FB6F894DEBF0FBECDBF9F8308
S1130BF08E83798768875B874A873D872C870E8732
S1130C00F88AEF86DA8AC98ABC8AAB8A29893A8942
S1130C108A859B85B9010E94520A9B838A838A81B3
S1130C209B81892B09F49FC08A819B81FC012789C0
S1130C30308D8A859B850197820F931F9D838C83BA
S1130C404A855B852B893C89688579858A819B8166
S1130C508A014E850E942C094C855D852E813F8139
S1130C608C819D81B9010E941E039C018A819B8114
S1130C70FC01318320838F859889892B39F08F85F6
S1130C8098892A813B81FC01318320830FB6F89433
S1130C900F9280913B058F5F80933B058091E30425
S1130CA09091E404892B69F48A819B819093E404F4
S1130CB08093E30480913B058130B1F40E9489095B
S1130CC013C080914005882379F48091E3049091C6
S1130CD0E404FC0196898E85891730F08A819B8112
S1130CE09093E4048093E3048A819B81FC019689B8
S1130CF080913E05891730F48A819B81FC018689A5
S1130D0080933E05809145058F5F809345058A81D8
S1130D109B81FC01968980913F05891730F48A8173
S1130D209B81FC01868980933F058A819B81AC016C
S1130D304E5F5F4F8A819B81FC018689282F30E0BA
S1130D40C901880F991F880F991F880F991F820F57
S1130D50931F8B519B4FBA010E94F90181E0898353
S1130D600F900FBE02C08FEF89838981813079F49F
S1130D7080914005882359F08091E3049091E40424
S1130D80FC0196898E85981710F40E94FC048981D1
S1130D9064960FB6F894DEBF0FBECDBFDF91CF913E
S1130DA01F910F91FF90EF90DF90CF90BF90AF9085
S1130DB00895CF93DF9300D000D01F92CDB7DEB754
S1130DC09D838C8319828C819D81892BD1F00E9413
S1130DD0460720913C0530913D058C819D81820F11
S1130DE0931F9B838A838091E3049091E404029689
S1130DF00E94CA028A819B810E94070A0E945307AB
S1130E0089838981882311F40E94FC0400000F90D7
S1130E100F900F900F900F90DF91CF910895AF92A4
S1130E20BF92CF92DF92EF92FF920F93CF93DF9313
S1130E301F92CDB7DEB7A12CB12CC12CD12CE12C43
S1130E40F12C00E020E030E044E650E069E670E098
S1130E5080E299E00E94E50589838981813051F41B
S1130E60F89481E08093400510923D0510923C0572
S1130E700E94C70400000F90DF91CF910F91FF9063
S1130E80EF90DF90CF90BF90AF900895CF93DF9312
S1130E90CDB7DEB7809141058F5F80934105000097
S1130EA0DF91CF9108950F931F93CF93DF9300D0D9
S1130EB0CDB7DEB719820FB6F8940F928091410531
S1130EC081508093410580914105882309F062C0D7
S1130ED080913B05882309F45DC01A823AC0809151
S1130EE02D0590912E05FC0106811781C8010C96F1
S1130EF00E94CA02C80102960E94CA02F801968999
S1130F0080913F05891720F4F801868980933F0575
S1130F10A8014E5F5F4FF8018689282F30E0C90190
S1130F20880F991F880F991F880F991F820F931F8D
S1130F308B519B4FBA010E94F901F80126898091D7
S1130F40E3049091E404FC018689281710F081E001
S1130F508A8380912805882311F68091420588238D
S1130F6061F007C00E94D4078091420581508093AC
S1130F704205809142058823A9F78A81813021F0B6
S1130F8080914305813031F481E0898310924305D7
S1130F900E94FC040F900FBE89810F900F90DF9187
S1130FA0CF911F910F910895CF93DF9300D000D07C
S1130FB000D0CDB7DEB780914105882309F0C3C0C6
S1130FC080913C0590913D05019690933D05809359
S1130FD03C0580913C0590913D05892BE9F5809174
S1130FE02405909125059A83898380912605909103
S1130FF02705909325058093240589819A819093F0
S1131000270580932605809144058F5F80934405CE
S11310108091240590912505FC018081882339F471
S11310208FEF9FEF909368008093670015C08091C5
S1131030240590912505FC0185819681FC0186811A
S113104097819C838B838B819C81FC01828193811A
S1131050909368008093670020913C0530913D0592
S113106080916700909168002817390708F471C0CF
S11310708091240590912505FC018081882339F411
S11310808FEF9FEF909368008093670062C0809118
S1131090240590912505FC0185819681FC018681BA
S11310A097819C838B838B819C81FC0182819381BA
S11310B09E838D8320913C0530913D058D819E81D9
S11310C02817390738F48D819E81909368008093A6
S11310D067003FC08B819C8102960E94CA028B816B
S11310E09C81FC0184899589892B29F08B819C81C1
S11310F00C960E94CA028B819C81FC019689809186
S11311003F05891730F48B819C81FC01868980938B
S11311103F058B819C81AC014E5F5F4F8B819C812D
S1131120FC018689282F30E0C901880F991F880F98
S1131130991F880F991F820F931F8B519B4FBA01E0
S11311400E94F90195CF809142058F5F80934205FB
S113115000C0000026960FB6F894DEBF0FBECDBFC8
S1131160DF91CF910895CF93DF9300D0CDB7DEB751
S113117080914105882349F081E0809343055AC05A
S113118080913F05815080933F0580913F05282F32
S113119030E0C901880F991F880F991F880F991F84
S11311A0820F931F8B519B4FFC018081882341F355
S11311B080913F05282F30E0C901880F991F880FBF
S11311C0991F880F991F820F931F8B519B4F9A83EE
S11311D0898389819A81FC0181819281FC01228128
S11311E0338189819A81FC013283218389819A81A7
S11311F0FC012181328189819A810396281739075C
S113120069F489819A81FC0181819281FC012281A6
S1131210338189819A81FC013283218389819A8176
S1131220FC0181819281FC01868197819093E40481
S11312308093E30400000F900F90DF91CF91089505
S1131240CF93DF9300D0CDB7DEB79A8389830E9412
S1131250C7090E94FC04FBCF0F931F93CF93DF9326
S1131260CDB7DEB729970FB6F894DEBF0FBECDBF5A
S11312709A8389837C836B834D833F832E83198771
S1131280088789819A8149962B813C8144E150E009
S1131290B9010E94351A89819A81FC0114A68D81B5
S11312A0853010F084E08D8389819A812D81FC0141
S11312B0268B89819A8102960E94E70189819A810D
S11312C00C960E94E70189819A8129813A81FC0167
S11312D0318720878D81882F90E025E030E0281B1E
S11312E0390B89819A81FC013587248789819A8108
S11312F029813A81FC01338B228B000029960FB699
S1131300F894DEBF0FBECDBFDF91CF911F910F9137
S11313100895CF93DF931F92CDB7DEB7198213C020
S11313208981282F30E0C901880F991F880F991FE0
S1131330880F991F820F931F8B519B4F0E94B101FD
S113134089818F5F89838981853050F382E195E0BB
S11313500E94B1018BE195E00E94B10188E295E021
S11313600E94B10181E395E00E94B10182E195E020
S113137090932505809324058BE195E090932705B0
S11313808093260500000F90DF91CF910895CF93AD
S1131390DF9300D01F92CDB7DEB780913A05882342
S11313A079F10E9446079091310581E0992309F073
S11313B080E089830E9453078981882309F50FB649
S11313C0F8940F928091360590913705FC0186813F
S11313D097819B838A838A819B8102960E94CA0299
S11313E080913B05815080933B0580913A05815063
S11313F080933A050F900FBE8A819B810E949C0ABC
S113140000000F900F900F90DF91CF910895CF932C
S1131410DF9300D0CDB7DEB79A8389838091E3044C
S11314209091E40429813A81FC01338322838091E1
S11314303C0590913D0529813A812817390778F4B4
S11314408091E3049091E4049C012E5F3F4F8091CE
S1131450260590912705B9010E9452021DC0809172
S1131460E3049091E4049C012E5F3F4F8091240596
S113147090912505B9010E945202809167009091D4
S1131480680029813A812817390730F489819A81C3
S1131490909368008093670000000F900F90DF9195
S11314A0CF910895CF93DF9300D000D000D0CDB773
S11314B0DEB79C838B837E836D838DE290E00E94F4
S11314C05F019A83898389819A81892B51F18D8166
S11314D09E81892B29F48B819C810E945F0102C02B
S11314E08D819E8129813A81F901908F878B898131
S11314F09A81FC018789908D892B39F489819A819D
S11315000E94A4011A8219820CC089819A81FC016B
S11315108789908D2B813C81A90165EA70E00E9446
S11315202E1A89819A8126960FB6F894DEBF0FBED3
S1131530CDBFDF91CF910895CF93DF9300D0CDB786
S1131540DEB79A83898389819A81FC018789908D8A
S11315500E94A40189819A810E94A40100000F9035
S11315600F90DF91CF910895CF93DF93CDB7DEB77E
S113157061E080E00E94F41461E081E00E94F414D0
S113158061E082E00E94F41461E083E00E94F414BC
S11315900000DF91CF910895CF93DF93CDB7DEB7ED
S11315A0E9970FB6F894DEBF0FBECDBF89AF60E0F8
S11315B086E10E94F41489AD881F8827881F682F4C
S11315C08FE10E94F41489AD829586958695837087
S11315D08170682F8EE10E94F41489AD82958695FE
S11315E087708170682F8DE10E94F41489AD829513
S11315F08F708170682F8CE10E94F41461E087E1A0
S11316000E94F41480E090E0A0E8BFE389839A8309
S1131610AB83BC8320E030E04AEF54E469817A81F3
S11316208B819C810E946619DC01CB018FA798AB4A
S1131630A9ABBAAB20E030E040E85FE36FA578A93E
S113164089A99AA90E94B81888232CF481E090E013
S11316509CAB8BAB3FC020E03FEF4FE757E46FA557
S113166078A989A99AA90E94611918164CF520E055
S113167030E040E251E469817A818B819C810E944F
S11316806619DC01CB01BC01CD010E94BD18DC014F
S1131690CB019CAB8BAB0FC088EC90E09EAB8DABC9
S11316A08DA99EA90197F1F79EAB8DAB8BA99CA93F
S11316B001979CAB8BAB8BA99CA9892B69F714C0B0
S11316C06FA578A989A99AA90E94BD18DC01CB014C
S11316D09CAB8BAB8BA99CA998AF8FAB8FA998AD12
S11316E00197F1F798AF8FAB60E087E10E94F414A3
S11316F080E090E0A0E8BFE38D839E83AF83B8874A
S113170020E030E04AEF54E46D817E818F8198853A
S11317100E946619DC01CB018DA39EA3AFA3B8A7D9
S113172020E030E040E85FE36DA17EA18FA198A5A1
S11317300E94B81888232CF481E090E09AA789A726
S11317403FC020E03FEF4FE757E46DA17EA18FA19A
S113175098A50E94611918164CF520E030E040E28B
S113176051E46D817E818F8198850E946619DC0128
S1131770CB01BC01CD010E94BD18DC01CB019AA7AD
S113178089A70FC088EC90E09CA78BA78BA59CA58C
S11317900197F1F79CA78BA789A59AA501979AA70A
S11317A089A789A59AA5892B69F714C06DA17EA183
S11317B08FA198A50E94BD18DC01CB019AA789A727
S11317C089A59AA59EA78DA78DA59EA50197F1F73A
S11317D09EA78DA789AD8695869586958170682F7D
S11317E08FE10E94F41489AD869586958170682FE7
S11317F08EE10E94F41489AD86958170682F8DE185
S11318000E94F41489AD8170682F8CE10E94F41455
S113181061E087E10E94F41480E090E0A0E8BFE377
S113182089879A87AB87BC8720E030E04AEF54E48D
S113183069857A858B859C850E946619DC01CB01BC
S11318408B8F9C8FAD8FBE8F20E030E040E85FE34C
S11318506B8D7C8D8D8D9E8D0E94B81888232CF401
S113186081E090E098A38F8F3FC020E03FEF4FE7E7
S113187057E46B8D7C8D8D8D9E8D0E946119181699
S11318804CF520E030E040E251E469857A858B85AF
S11318909C850E946619DC01CB01BC01CD010E942C
S11318A0BD18DC01CB0198A38F8F0FC088EC90E0AA
S11318B09AA389A389A19AA10197F1F79AA389A36D
S11318C08F8D98A1019798A38F8F8F8D98A1892BC5
S11318D069F714C06B8D7C8D8D8D9E8D0E94BD1813
S11318E0DC01CB0198A38F8F8F8D98A19CA38BA330
S11318F08BA19CA10197F1F79CA38BA360E087E1E6
S11319000E94F41480E090E0A0E8BFE38D879E87F6
S1131910AF87B88B20E030E04AEF54E46D857E85D4
S11319208F8598890E946619DC01CB01898B9A8B7B
S1131930AB8BBC8B20E030E040E85FE369897A89B7
S11319408B899C890E94B81888232CF481E090E04C
S11319509E8B8D8B3FC020E03FEF4FE757E46989B2
S11319607A898B899C890E94611918164CF520E0AC
S113197030E040E251E46D857E858F8598890E9430
S11319806619DC01CB01BC01CD010E94BD18DC014C
S1131990CB019E8B8D8B0FC088EC90E0988F8F8B42
S11319A08F89988D0197F1F7988F8F8B8D899E89F8
S11319B001979E8B8D8B8D899E89892B69F714C025
S11319C069897A898B899C890E94BD18DC01CB01C5
S11319D09E8B8D8B8D899E899A8F898F898D9A8D07
S11319E00197F1F79A8F898F0000E9960FB6F89462
S11319F0DEBF0FBECDBFDF91CF910895CF93DF93AC
S1131A00CDB7DEB7E9970FB6F894DEBF0FBECDBFF2
S1131A1089AF61E086E10E94F41489AD881F8827AC
S1131A20881F682F8FE10E94F41489AD82958695F2
S1131A30869583708170682F8EE10E94F41489ADBD
S1131A408295869587708170682F8DE10E94F414C9
S1131A5089AD82958F708170682F8CE10E94F41497
S1131A6061E087E10E94F41480E090E0A0E8BFE325
S1131A7089839A83AB83BC8320E030E04AEF54E44B
S1131A8069817A818B819C810E946619DC01CB017A
S1131A908FA798ABA9ABBAAB20E030E040E85FE396
S1131AA06FA578A989A99AA90E94B81888232CF44B
S1131AB081E090E09CAB8BAB3FC020E03FEF4FE771
S1131AC057E46FA578A989A99AA90E9461191816E3
S1131AD04CF520E030E040E251E469817A818B8169
S1131AE09C810E946619DC01CB01BC01CD010E94DE
S1131AF0BD18DC01CB019CAB8BAB0FC088EC90E034
S1131B009EAB8DAB8DA99EA90197F1F79EAB8DABD2
S1131B108BA99CA901979CAB8BAB8BA99CA9892B06
S1131B2069F714C06FA578A989A99AA90E94BD185C
S1131B30DC01CB019CAB8BAB8BA99CA998AF8FAB81
S1131B408FA998AD0197F1F798AF8FAB60E087E16B
S1131B500E94F41480E090E0A0E8BFE38D839E83AC
S1131B60AF83B88720E030E04AEF54E46D817E8192
S1131B708F8198850E946619DC01CB018DA39EA3F9
S1131B80AFA3B8A720E030E040E85FE36DA17EA1F9
S1131B908FA198A50E94B81888232CF481E090E0C6
S1131BA09AA789A73FC020E03FEF4FE757E46DA114
S1131BB07EA18FA198A50E94611918164CF520E00A
S1131BC030E040E251E46D817E818F8198850E94EE
S1131BD06619DC01CB01BC01CD010E94BD18DC01FA
S1131BE0CB019AA789A70FC088EC90E09CA78BA78C
S1131BF08BA59CA50197F1F79CA78BA789A59AA50E
S1131C0001979AA789A789A59AA5892B69F714C072
S1131C106DA17EA18FA198A50E94BD18DC01CB0106
S1131C209AA789A789A59AA59EA78DA78DA59EA5E4
S1131C300197F1F79EA78DA789AD86958695869520
S1131C408170682F8FE10E94F41489AD8695869582
S1131C508170682F8EE10E94F41489AD869581709D
S1131C60682F8DE10E94F41489AD8170682F8CE196
S1131C700E94F41461E087E10E94F41480E090E093
S1131C80A0E8BFE389879A87AB87BC8720E030E070
S1131C904AEF54E469857A858B859C850E94661990
S1131CA0DC01CB018B8F9C8FAD8FBE8F20E030E0A9
S1131CB040E85FE36B8D7C8D8D8D9E8D0E94B818FE
S1131CC088232CF481E090E098A38F8F3FC020E01C
S1131CD03FEF4FE757E46B8D7C8D8D8D9E8D0E9479
S1131CE0611918164CF520E030E040E251E46985B2
S1131CF07A858B859C850E946619DC01CB01BC0129
S1131D00CD010E94BD18DC01CB0198A38F8F0FC0B9
S1131D1088EC90E09AA389A389A19AA10197F1F78D
S1131D209AA389A38F8D98A1019798A38F8F8F8DE4
S1131D3098A1892B69F714C06B8D7C8D8D8D9E8D38
S1131D400E94BD18DC01CB0198A38F8F8F8D98A1C1
S1131D509CA38BA38BA19CA10197F1F79CA38BA3BC
S1131D6060E087E10E94F41480E090E0A0E8BFE323
S1131D708D879E87AF87B88B20E030E04AEF54E42C
S1131D806D857E858F8598890E946619DC01CB015B
S1131D90898B9A8BAB8BBC8B20E030E040E85FE30F
S1131DA069897A898B899C890E94B81888232CF4C4
S1131DB081E090E09E8B8D8B3FC020E03FEF4FE7AA
S1131DC057E469897A898B899C890E94611918165C
S1131DD04CF520E030E040E251E46D857E858F854E
S1131DE098890E946619DC01CB01BC01CD010E94D7
S1131DF0BD18DC01CB019E8B8D8B0FC088EC90E06D
S1131E00988F8F8B8F89988D0197F1F7988F8F8B8F
S1131E108D899E8901979E8B8D8B8D899E89892BB7
S1131E2069F714C069897A898B899C890E94BD18D5
S1131E30DC01CB019E8B8D8B8D899E899A8F898F36
S1131E40898D9A8D0197F1F79A8F898F0000E99611
S1131E500FB6F894DEBF0FBECDBFDF91CF910895CA
S1131E60CF93DF93CDB7DEB76C970FB6F894DEBF90
S1131E700FBECDBF80E090E0A8E4B2E489839A83EA
S1131E80AB83BC8320E030E04AEF54E469817A817B
S1131E908B819C810E946619DC01CB018B8B9C8B0E
S1131EA0AD8BBE8B20E030E040E85FE36B897C893A
S1131EB08D899E890E94B81888232CF481E090E0D3
S1131EC0988F8F8B3FC020E03FEF4FE757E46B893B
S1131ED07C898D899E890E94611918164CF520E031
S1131EE030E040E251E469817A818B819C810E94D7
S1131EF06619DC01CB01BC01CD010E94BD18DC01D7
S1131F00CB01988F8F8B0FC088EC90E09A8F898FCC
S1131F10898D9A8D0197F1F79A8F898F8F89988D82
S1131F200197988F8F8B8F89988D892B69F714C0AF
S1131F306B897C898D899E890E94BD18DC01CB0147
S1131F40988F8F8B8F89988D9C8F8B8F8B8D9C8D89
S1131F500197F1F79C8F8B8F82E00E94CC0A88E274
S1131F600E94CC0A8CE00E94CC0A81E00E94CC0A38
S1131F7080E090E0A0E8BFE38D839E83AF83B887C1
S1131F8020E030E04AEF54E46D817E818F819885B2
S1131F900E946619DC01CB0189879A87AB87BC87CD
S1131FA020E030E040E85FE369857A858B859C8595
S1131FB00E94B81888232CF481E090E09E878D87D6
S1131FC03FC020E03FEF4FE757E469857A858B8572
S1131FD09C850E94611918164CF520E030E040E21F
S1131FE051E46D817E818F8198850E946619DC01A0
S1131FF0CB01BC01CD010E94BD18DC01CB019E8741
S11320008D870FC088EC90E0988B8F878F85988997
S11320100197F1F7988B8F878D859E8501979E8711
S11320208D878D859E85892B69F714C069857A858E
S11320308B859C850E94BD18DC01CB019E878D8712
S11320408D859E859A8B898B89899A890197F1F769
S11320509A8B898B86E00E94CC0A00006C960FB69E
S1132060F894DEBF0FBECDBFDF91CF910895CF931B
S1132070DF931F92CDB7DEB7898389810E94FE0C5E
S113208000000F90DF91CF9108950F931F93CF938A
S1132090DF93CDB7DEB767970FB6F894DEBF0FBEF8
S11320A0CDBF6C8B7D8B8E8B9F8B19821A828C8912
S11320B09D89AE89BF89892B8A2B8B2B21F480E3E0
S11320C00E94371077C08C899D89AE89BF89BB2354
S11320D00CF040C08C899D89AE89BF89B095A095CC
S11320E0909581959F4FAF4FBF4F8C8B9D8BAE8B3F
S11320F0BF8B81E089832EC08A81082F10E08C89F0
S11321009D89AE89BF892AE030E040E050E0BC01FF
S1132110CD010E94F519DC01CB0120E3280FCE018B
S11321200496800F911FFC0120838C899D89AE89C0
S1132130BF892AE030E040E050E0BC01CD010E94BC
S1132140F519DA01C9018C8B9D8BAE8BBF8B8A810B
S11321508F5F8A838C899D89AE89BF89892B8A2B5D
S11321608B2B51F68981882371F08A81882F90E026
S11321709E012C5F3F4F820F931F2DE2FC012083B1
S11321808A818F5F8A838A8181508B8310C08B817F
S1132190082E000C990B9E012C5F3F4F820F931F5A
S11321A0FC0180810E9437108B8181508B838B814D
S11321B088236CF767960FB6F894DEBF0FBECDBFC9
S11321C0DF91CF911F910F910895CF93DF9300D0AA
S11321D0CDB7DEB789836A838981882329F48A810C
S11321E080580E94CC0A07C08981813021F48A81F9
S11321F080540E94CC0A00000F900F90DF91CF9181
S11322000895CF93DF9300D0CDB7DEB787E00E9467
S113221022129A83898389819A810F900F90DF918A
S1132220CF910895AF92BF92CF92DF92EF92FF9237
S11322300F93CF93DF93CDB7DEB70E94D3140E94E0
S1132240300F0E94B40A0E94AD1663E081E00E9440
S1132250681185E690E00E94F3160E94E2167894D5
S11322600E944900A12CB12CC12CD12CE12CF12CC1
S113227002E020E030E04AEF50E060E070E08BE8FC
S113228090E00E94E505A12CB12CC12CD12CE12CAD
S1132290F12C03E020E030E04AEF50E060E070E031
S11322A08DEE90E00E94E505A12CB12CC12CD12C1F
S11322B0E12CF12C01E020E030E04AEF50E060E056
S11322C070E081E291E00E94E5050E940F07FFCFD4
S11322D0CF93DF9300D0CDB7DEB789836A8386E2DC
S11322E090E026E230E0F9012081287FFC01208380
S11322F08A8187708A8386E290E026E230E0F901E1
S113230030812A81232BFC0120838981882F90E04E
S113231081309105C1F08230910541F1892BC9F5D5
S113232087E290E027E230E0F90120812F77FC0179
S1132330208387E290E027E230E0F90120812F7BBF
S1132340FC01208326C087E290E027E230E0F90117
S113235020812F77FC01208387E290E027E230E0A0
S1132360F90120812064FC01208313C087E290E0FE
S113237027E230E0F90120812068FC01208387E214
S113238090E027E230E0F90120812064FC01208301
S1132390000087E290E027E230E0F90120812F7D00
S11323A0FC01208386E290E026E230E0F9012081FE
S11323B02068FC01208300000F900F90DF91CF91E3
S11323C00895CF93DF9300D01F92CDB7DEB78B83F0
S11323D087E290E027E230E0F9012081207EFC01D1
S11323E0208387E290E027E230E0F90130812B81FD
S11323F0232BFC01208386E290E026E230E0F90101
S113240020812064FC012083000086E290E0FC012E
S113241080818295869586958370882F90E081705F
S11324209927892B91F784E290E0FC0180819181C6
S11324309A83898389819A810F900F900F90DF91FD
S1132440CF910895CF93DF9300D000D01F92CDB7E2
S1132450DEB78D831A8219828D810E94E1119C83DB
S11324608B838B819C819C0140E050E088E893E160
S1132470DC010E94231ADC01CB012FEF33E040E0A2
S113248050E0BC01CD010E94D319DA01C9019A833D
S1132490898389819A810F900F900F900F900F90EC
S11324A0DF91CF910895CF93DF9300D01F92CDB7E2
S11324B0DEB78A836B838A81883010F4198223C043
S11324C08A81883048F08A81803130F481E08983C0
S11324D08A8188508A8317C08A81803148F08A8132
S11324E0883130F482E089838A8180518A830BC0E9
S11324F08A81883140F08A81803228F483E089839C
S11325008A8188518A838B81882F90E0813091055C
S113251009F4C4C08230910509F481C1892B09F002
S11325203BC28981882F90E081309105C1F18230CE
S113253091051CF4892B49F02FC28230910509F4CE
S113254058C0039709F47FC027C28AE390E02AE3C6
S113255030E0F9012081622F2A81422F50E021E0EE
S113256030E002C0220F331F4A95E2F7262BFC010C
S113257020838BE390E02BE330E0F9012081622F8C
S11325802A81422F50E021E030E002C0220F331FA5
S11325904A95E2F720952623FC0120837EC087E339
S11325A090E027E330E0F9012081622F2A81422F55
S11325B050E021E030E002C0220F331F4A95E2F7D9
S11325C0262BFC01208388E390E028E330E0F90126
S11325D02081622F2A81422F50E021E030E002C0A6
S11325E0220F331F4A95E2F720952623FC0120830E
S11325F054C084E390E024E330E0F9012081622FA9
S11326002A81422F50E021E030E002C0220F331F24
S11326104A95E2F7262BFC01208385E390E025E32D
S113262030E0F9012081622F2A81422F50E021E01D
S113263030E002C0220F331F4A95E2F7209526238B
S1132640FC0120832AC081E390E021E330E0F9011A
S11326502081622F2A81422F50E021E030E002C025
S1132660220F331F4A95E2F7262BFC01208382E3D5
S113267090E022E330E0F9012081622F2A81422F89
S113268050E021E030E002C0220F331F4A95E2F708
S113269020952623FC01208300007EC18981882F98
S11326A090E081309105C9F1823091051CF4892BA9
S11326B049F072C18230910509F45AC0039709F4B4
S11326C082C06AC18AE390E02AE330E0F901208104
S11326D0622F2A81422F50E021E030E002C0220F15
S11326E0331F4A95E2F720952623FC0120838BE3D0
S11326F090E02BE330E0F9012081622F2A81422F00
S113270050E021E030E002C0220F331F4A95E2F787
S113271020952623FC01208381C087E390E027E3F2
S113272030E0F9012081622F2A81422F50E021E01C
S113273030E002C0220F331F4A95E2F7209526238A
S1132740FC01208388E390E028E330E0F901208154
S1132750622F2A81422F50E021E030E002C0220F94
S1132760331F4A95E2F720952623FC01208356C0A7
S113277084E390E024E330E0F9012081622F2A8190
S1132780422F50E021E030E002C0220F331F4A956F
S1132790E2F720952623FC01208385E390E025E3DE
S11327A030E0F9012081622F2A81422F50E021E09C
S11327B030E002C0220F331F4A95E2F7209526230A
S11327C0FC0120832BC081E390E021E330E0F90198
S11327D02081622F2A81422F50E021E030E002C0A4
S11327E0220F331F4A95E2F720952623FC0120830C
S11327F082E390E022E330E0F9012081622F2A8114
S1132800422F50E021E030E002C0220F331F4A95EE
S1132810E2F720952623FC0120830000BDC08981B6
S1132820882F90E081309105C1F1823091051CF42C
S1132830892B49F0B0C08230910509F458C0039740
S113284009F47FC0A8C08AE390E02AE330E0F901EC
S11328502081622F2A81422F50E021E030E002C023
S1132860220F331F4A95E2F720952623FC0120838B
S11328708BE390E02BE330E0F9012081622F2A8181
S1132880422F50E021E030E002C0220F331F4A956E
S1132890E2F7262BFC0120837EC087E390E027E348
S11328A030E0F9012081622F2A81422F50E021E09B
S11328B030E002C0220F331F4A95E2F72095262309
S11328C0FC01208388E390E028E330E0F9012081D3
S11328D0622F2A81422F50E021E030E002C0220F13
S11328E0331F4A95E2F7262BFC01208354C084E36E
S11328F090E024E330E0F9012081622F2A81422F05
S113290050E021E030E002C0220F331F4A95E2F785
S113291020952623FC01208385E390E025E330E025
S1132920F9012081622F2A81422F50E021E030E01A
S113293002C0220F331F4A95E2F7262BFC012083A5
S11329402AC081E390E021E330E0F9012081622F85
S11329502A81422F50E021E030E002C0220F331FD1
S11329604A95E2F720952623FC01208382E390E038
S113297022E330E0F9012081622F2A81422F50E0C6
S113298021E030E002C0220F331F4A95E2F7262BE4
S1132990FC0120830000000000000F900F900F90B6
S11329A0DF91CF910895CF93DF9300D0CDB7DEB7F9
S11329B01A8219820FC089819A8182599F4FFC0122
S11329C090818981692F0E94531289819A8101968D
S11329D09A83898389819A8180976CF300000F9090
S11329E00F90DF91CF910895CF93DF9300D01F9282
S11329F0CDB7DEB78A836B838A81883010F419825D
S1132A0023C08A81883048F08A81803130F481E0A3
S1132A1089838A8188508A8317C08A81803148F0EB
S1132A208A81883130F482E089838A8180518A8363
S1132A300BC08A81883140F08A81803228F483E097
S1132A4089838A8188518A838B81882F90E00097BB
S1132A5009F46BC0019709F0D4C08981882F90E0F4
S1132A608130910511F1823091051CF4892B41F0DC
S1132A70C8C08230910571F1039709F440C0C1C008
S1132A808BE390E02BE330E0F9012081622F2A816F
S1132A90422F50E021E030E002C0220F331F4A955C
S1132AA0E2F7262BFC0120833FC088E390E028E373
S1132AB030E0F9012081622F2A81422F50E021E089
S1132AC030E002C0220F331F4A95E2F7262BFC01A7
S1132AD020832AC085E390E025E330E0F9012081DA
S1132AE0622F2A81422F50E021E030E002C0220F01
S1132AF0331F4A95E2F7262BFC01208315C082E39D
S1132B0090E022E330E0F9012081622F2A81422FF4
S1132B1050E021E030E002C0220F331F4A95E2F773
S1132B20262BFC01208300006CC08981882F90E053
S1132B308130910519F1823091051CF4892B41F003
S1132B405FC08230910581F1039709F443C058C0F6
S1132B508BE390E02BE330E0F9012081622F2A819E
S1132B60422F50E021E030E002C0220F331F4A958B
S1132B70E2F720952623FC01208342C088E390E0FD
S1132B8028E330E0F9012081622F2A81422F50E0AE
S1132B9021E030E002C0220F331F4A95E2F720956E
S1132BA02623FC0120832CC085E390E025E330E05C
S1132BB0F9012081622F2A81422F50E021E030E088
S1132BC002C0220F331F4A95E2F720952623FC0109
S1132BD0208316C082E390E022E330E0F9012081F3
S1132BE0622F2A81422F50E021E030E002C0220F00
S1132BF0331F4A95E2F720952623FC012083000029
S1132C00000000000F900F900F90DF91CF91089576
S1132C101F920F9200905F000F9211242F933F9305
S1132C204F935F936F937F938F939F93AF93BF93D0
S1132C30EF93FF93CF93DF93CDB7DEB78091460533
S1132C4090914705892B31F0809146059091470575
S1132C50FC0109950000DF91CF91FF91EF91BF91A5
S1132C60AF919F918F917F916F915F914F913F9120
S1132C702F910F9000925F000F901F9018951F9254
S1132C800F9200905F000F9211242F933F934F9364
S1132C905F936F937F938F939F93AF93BF93EF93C0
S1132CA0FF93CF93DF93CDB7DEB780914805909122
S1132CB04905892B31F08091480590914905FC0123
S1132CC009950000DF91CF91FF91EF91BF91AF91F2
S1132CD09F918F917F916F915F914F913F912F9130
S1132CE00F9000925F000F901F9018951F920F9203
S1132CF000905F000F9211242F933F934F935F93A3
S1132D006F937F938F939F93AF93BF93EF93FF93AF
S1132D10CF93DF93CDB7DEB780914A0590914B05F1
S1132D20892B31F080914A0590914B05FC0109955E
S1132D300000DF91CF91FF91EF91BF91AF919F91EF
S1132D408F917F916F915F914F913F912F910F9050
S1132D5000925F000F901F901895CF93DF93CDB72B
S1132D60DEB78DE290E02DE230E0F90120812F7E84
S1132D70FC0120838DE290E02DE230E0F901208116
S1132D802064FC0120830000DF91CF910895CF934C
S1132D90DF93CDB7DEB78FE290E0FC018081DF9155
S1132DA0CF910895CF93DF931F92CDB7DEB7898378
S1132DB08FE290E02981FC01208300000F90DF91D5
S1132DC0CF910895CF93DF93CDB7DEB78DE290E036
S1132DD02DE230E0F90120812068FC01208300000D
S1132DE0DF91CF910895CF93DF9300D0CDB7DEB7B5
S1132DF09A83898389819A8190934D0580934C05A8
S1132E0000000F900F90DF91CF9108951F920F92C1
S1132E1000905F000F9211242F933F934F935F9381
S1132E206F937F938F939F93AF93BF93EF93FF938E
S1132E30CF93DF93CDB7DEB780914C0590914D05CC
S1132E40FC0109950000DF91CF91FF91EF91BF91B3
S1132E50AF919F918F917F916F915F914F913F912E
S1132E602F910F9000925F000F901F9018951F9262
S1132E700F9200905F000F9211242F933F934F9372
S1132E805F936F937F938F939F93AF93BF93EF93CE
S1132E90FF93CF93DF93CDB7DEB780914E0590912A
S1132EA04F05892B31F080914E0590914F05FC011F
S1132EB009950000DF91CF91FF91EF91BF91AF9100
S1132EC09F918F917F916F915F914F913F912F913E
S1132ED00F9000925F000F901F9018951F920F9211
S1132EE000905F000F9211242F933F934F935F93B1
S1132EF06F937F938F939F93AF93BF93EF93FF93BE
S1132F00CF93DF93CDB7DEB78091500590915105F3
S1132F10892B31F08091500590915105FC01099560
S1132F200000DF91CF91FF91EF91BF91AF919F91FD
S1132F308F917F916F915F914F913F912F910F905E
S1132F4000925F000F901F9018951F920F920090AF
S1132F505F000F9211242F933F934F935F936F93CE
S1132F607F938F939F93AF93BF93EF93FF93CF93ED
S1132F70DF93CDB7DEB78091540590915505892B29
S1132F8031F08091540590915505FC01099500009C
S1132F90DF91CF91FF91EF91BF91AF919F918F916D
S1132FA07F916F915F914F913F912F910F9000927C
S1132FB05F000F901F9018951F920F9200905F0072
S1132FC00F9211242F933F934F935F936F937F93AB
S1132FD08F939F93AF93BF93EF93FF93CF93DF931D
S1132FE0CDB7DEB78091560590915705892B31F006
S1132FF08091560590915705FC0109950000DF91D9
S1133000CF91FF91EF91BF91AF919F918F917F915C
S11330106F915F914F913F912F910F9000925F00BC
S11330200F901F9018951F920F9200905F000F92BF
S113303011242F933F934F935F936F937F938F93B9
S11330409F93AF93BF93EF93FF93CF93DF93CDB74A
S1133050DEB78091520590915305892B31F0809110
S1133060520590915305FC0109950000DF91CF9121
S1133070FF91EF91BF91AF919F918F917F916F914C
S11330805F914F913F912F910F9000925F000F90AD
S11330901F9018951F920F9200905F000F921124B9
S11330A02F933F934F935F936F937F938F939F934C
S11330B0AF93BF93EF93FF93CF93DF93CDB7DEB777
S11330C08091580590915905892B31F080915805CC
S11330D090915905FC0109950000DF91CF91FF9172
S11330E0EF91BF91AF919F918F917F916F915F917C
S11330F04F913F912F910F9000925F000F901F907E
S113310018951F920F9200905F000F9211242F9335
S11331103F934F935F936F937F938F939F93AF935B
S1133120BF93EF93FF93CF93DF93CDB7DEB7809137
S11331305A0590915B05892B31F080915A05909145
S11331405B05FC0109950000DF91CF91FF91EF91A0
S1133150BF91AF919F918F917F916F915F914F91AB
S11331603F912F910F9000925F000F901F90189540
S11331700E94EC1808F481E008950E94401988F038
S11331809F5798F0B92F9927B751B0F0E1F0660F27
S1133190771F881F991F1AF0BA95C9F714C0B13068
S11331A091F00E945A19B1E008950C945A19672FAE
S11331B0782F8827B85F39F0B93FCCF38695779597
S11331C06795B395D9F73EF4909580957095619580
S11331D07F4F8F4F9F4F0895990F0008550FAA0BEB
S11331E0E0E8FEEF16161706E807F907C0F0121616
S11331F01306E407F50798F0621B730B840B950B19
S113320039F40A2661F0232B242B252B21F408956D
S11332100A2609F4A140A6958FEF811D811D08950A
S113322097F99F6780E870E060E008959FEF80EC75
S1133230089500240A941616170618060906089518
S113324000240A9412161306140605060895092E7E
S11332500394000C11F4882352F0BB0F40F4BF2BED
S113326011F460FF04C06F5F7F4F8F4F9F4F08952D
S113327057FD9058440F551F59F05F3F71F0479523
S1133280880F97FB991F61F09F3F79F08795089508
S1133290121613061406551FF2CF4695F1DF08C027
S11332A0161617061806991FF1CF86957105610544
S11332B008940895E894BB2766277727CB0197F9EC
S11332C008950E94EC1808F48FEF08950E9479196C
S11332D00C9427190E94191938F00E94201920F023
S11332E0952311F00C9410190C94161911240C94B4
S11332F05B190E94381970F3959FC1F3950F50E044
S1133300551F629FF001729FBB27F00DB11D639F93
S1133310AA27F00DB11DAA1F649F6627B00DA11D39
S1133320661F829F2227B00DA11D621F739FB00DDF
S1133330A11D621F839FA00D611D221F749F33274F
S1133340A00D611D231F849F600D211D822F762FE8
S11333506A2F11249F5750409AF0F1F088234AF0C5
S1133360EE0FFF1FBB1F661F771F881F9150504031
S1133370A9F79E3F510580F00C9410190C945B1929
S11333805F3FE4F3983ED4F3869577956795B795B8
S1133390F795E7959F5FC1F7FE2B880F911D9695D2
S11333A0879597F90895A1E21A2EAA1BBB1BFD016C
S11333B00DC0AA1FBB1FEE1FFF1FA217B307E40710
S11333C0F50720F0A21BB30BE40BF50B661F771F68
S11333D0881F991F1A9469F7609570958095909548
S11333E09B01AC01BD01CF010895052E97FB1EF48E
S11333F000940E940C1A57FD07D00E94D31907FCB1
S113340003D04EF40C940C1A5095409530952195A8
S11334103F4F4F4F5F4F08959095809570956195FC
S11334207F4F8F4F9F4F0895A29FB001B39FC0015C
S1133430A39F700D811D1124911DB29F700D811DDC
S11334401124911D08950E94141AA59F900DB49FF4
S1133450900DA49F800D911D11240895DC0101C0DD
S11334606D9341505040E0F70895FB01DC01415059
S1133470504048F001900D920020C9F701C01D9200
S10F348041505040E0F70895F894FFCF4D
S113348C42000102030405FFFF49444C45000000BF
S113349C0000000000010000000001010001020214
S11134AC020200000000010000000000000009
S9030000FC
