S00F00006469706C6F6D612E737265632F
S11300000C942A000C9434000C9434000C943400A6
S11300100C9434000C9434000C9434000C9434008C
S11300200C9434000C9434000C9434000C9434007C
S11300300C9434000C9434000C9434000C9434006C
S11300400C9434000C9434000C9434000C9434005C
S11300500C94340011241FBECFE5D8E0DEBFCDBF21
S11300600E944E000C9464000C9400009DEC899F47
S1130070912D1124292F269526952695220F322F6E
S1130080330F330F230F821B88BB96959695969555
S11300909295907F88B3982B98BB08958FEF87BB78
S11300A014BA85BBC0E08C2F0E943600CF5FC436E3
S11300B009F4C0E02FEF81EE94E02150804090409D
S10F00C0E1F700C00000EFCFF894FFCF80
S9030000FC
